:020000000828CE
:100010000313831605148510860187019F131F1291
:100020009F12031783160814881089010313831283
:100030009F131F179E019E018501860187011F14D2
:10004000F6308F003C308E000C10031383160C101A
:1000500003138312313090000C100B138B13031316
:1000600083120C1C2F280C1003138312F6308F0000
:100070003C308E00000000000000000000009F14D3
:100080009F184028F3010C309E02031C4928F30AF4
:10009000432814307302031C4F281430F30005303A
:1000A000F30785145720F30B522885102F281E3094
:0C00B000F20000000000F20B5B280800CA
:04400E00F120FF3F5F
:00000001FF
