:020000000828CE
:020008005B2873
:1000100003178316081489010313831605140711A7
:100020009F171F129F12031383129F131F171F1472
:100030000A309700B1308F00E0308E000C100C11A8
:10004000031383160C140C1503138312F201F3012E
:100050009F149F182928031383121E08A40003135A
:1000600083161E0803138312A3008A1178208A11B5
:10007000031383122208960021089500731401309F
:1000800090000B178B1772184328731843289F147E
:100090009F184828031383121E08A4000313831615
:1000A0001E0803138312A300031383128A117820FE
:1000B0008A1173144328F000030EF1000C18672016
:1000C0000C197420710E8300F00E700E09000C10D4
:1000D000B1308F00E0308E0007152208960021080D
:1000E00095007310721408000C11071172100800AB
:1000F000031383122308A1002408A2000310A10DFA
:10010000A20D2108A3070318A40A2208A407063099
:10011000A5000310A40CA30CA50B89282308A10299
:10012000031CA203D430A1070318A20AB330A2070C
:020130000800C5
:04400E00F120FF3F5F
:00000001FF
