:020000000828CE
:1000100003138316051485109F131F129F120317D5
:100020008316081488108901031383129F131F1766
:100030009E019E0185011F14F6308F003C308E001A
:100040000C10031383160C1003138312313090002D
:100050000C10031383120C1C29280C100313831299
:10006000F6308F003C308E000000000000000000E1
:1000700000009F149F183A28F1010C309E02031CC7
:100080004328F10A3D2814307102031C492814301A
:10009000F1000530F10785145120F10B4C28851033
:1000A00029281E30F00000000000F00B5528080041
:04400E00F120FF3F5F
:00000001FF
