:020000000828CE
:0200080054287A
:1000100003178316081489010313831605140711A7
:100020009F131F129F12031383129F131F179E010A
:100030009E011F140A309700B1308F00E0308E000F
:1000400007110C100C11031383160C140C15031359
:100050008312F201F3019F149F182C281E08F4004C
:100060000310F40C0310F40C74088A11CB268A11C7
:1000700024089600230895007314013090000B1794
:100080008B1772184128731841289F149F1846280F
:100090001E08F4000310F40C0310F40C74088A1109
:1000A000CB268A1173144128F000030EF1000C18BE
:1000B00060200C196D20710E8300F00E700E090087
:1000C0000C10B1308F00E0308E0007152408960028
:1000D000230895007310721408000C110711721098
:0200E000080016
:100C000003138312A5000313831206308A00031313
:100C1000831225088207D434F43413343334533424
:100C200073349234B234D234F23411343134513416
:100C300071349034B034D034F0340F342F344F3416
:100C40006F348E34AE34CE34EE340D342D344D3416
:100C50006D348C34AC34CC34EC340B342B344B3416
:100C60006B348A34AA34CA34EA3409342934493416
:100C700069348834A834C834E83407342734473416
:100C800067348634A634C634E63405342534453416
:060C900065348434A43435
:100D000003138312A5000313831206308A00031312
:100D1000831225088207B334B334B434B434B43402
:100D2000B434B434B434B434B434B534B534B53480
:100D3000B534B534B534B534B534B634B634B63468
:100D4000B634B634B634B634B634B734B734B73450
:100D5000B734B734B734B734B734B834B834B83438
:100D6000B834B834B834B834B834B934B934B93420
:100D7000B934B934B934B934B934BA34BA34BA3408
:100D8000BA34BA34BA34BA34BA34BB34BB34BB34F0
:100D9000BB34BB34BB3403138312A50025088A116E
:100DA00000268A1103138312A3000313831225085C
:0E0DB0008A1180268A1103138312A400080002
:04400E00F120FF3F5F
:00000001FF
